{
  "contractName": "Betting",
  "abi": [
    {
      "inputs": [
        {
          "internalType": "bytes32[]",
          "name": "initOutcomes",
          "type": "bytes32[]"
        }
      ],
      "stateMutability": "nonpayable",
      "type": "constructor"
    },
    {
      "anonymous": false,
      "inputs": [
        {
          "indexed": true,
          "internalType": "address",
          "name": "gambler",
          "type": "address"
        },
        {
          "indexed": true,
          "internalType": "bytes32",
          "name": "outcome",
          "type": "bytes32"
        },
        {
          "indexed": false,
          "internalType": "uint256",
          "name": "amount",
          "type": "uint256"
        }
      ],
      "name": "BetMade",
      "type": "event"
    },
    {
      "anonymous": false,
      "inputs": [
        {
          "indexed": true,
          "internalType": "address",
          "name": "previousOracle",
          "type": "address"
        },
        {
          "indexed": true,
          "internalType": "address",
          "name": "newOracle",
          "type": "address"
        }
      ],
      "name": "OracleChanged",
      "type": "event"
    },
    {
      "anonymous": false,
      "inputs": [
        {
          "indexed": true,
          "internalType": "address[]",
          "name": "wins",
          "type": "address[]"
        },
        {
          "indexed": false,
          "internalType": "uint256",
          "name": "totalPrize",
          "type": "uint256"
        }
      ],
      "name": "Winners",
      "type": "event"
    },
    {
      "anonymous": false,
      "inputs": [
        {
          "indexed": true,
          "internalType": "address",
          "name": "gambler",
          "type": "address"
        },
        {
          "indexed": false,
          "internalType": "uint256",
          "name": "amount",
          "type": "uint256"
        }
      ],
      "name": "Withdrawn",
      "type": "event"
    },
    {
      "inputs": [
        {
          "internalType": "address",
          "name": "",
          "type": "address"
        }
      ],
      "name": "bets",
      "outputs": [
        {
          "internalType": "bytes32",
          "name": "outcome",
          "type": "bytes32"
        },
        {
          "internalType": "uint256",
          "name": "amount",
          "type": "uint256"
        }
      ],
      "stateMutability": "view",
      "type": "function",
      "constant": true
    },
    {
      "inputs": [],
      "name": "decisionMade",
      "outputs": [
        {
          "internalType": "bool",
          "name": "",
          "type": "bool"
        }
      ],
      "stateMutability": "view",
      "type": "function",
      "constant": true
    },
    {
      "inputs": [
        {
          "internalType": "uint256",
          "name": "",
          "type": "uint256"
        }
      ],
      "name": "gamblers",
      "outputs": [
        {
          "internalType": "address",
          "name": "",
          "type": "address"
        }
      ],
      "stateMutability": "view",
      "type": "function",
      "constant": true
    },
    {
      "inputs": [
        {
          "internalType": "address",
          "name": "",
          "type": "address"
        }
      ],
      "name": "isGambler",
      "outputs": [
        {
          "internalType": "bool",
          "name": "",
          "type": "bool"
        }
      ],
      "stateMutability": "view",
      "type": "function",
      "constant": true
    },
    {
      "inputs": [],
      "name": "oracle",
      "outputs": [
        {
          "internalType": "address",
          "name": "",
          "type": "address"
        }
      ],
      "stateMutability": "view",
      "type": "function",
      "constant": true
    },
    {
      "inputs": [
        {
          "internalType": "bytes32",
          "name": "",
          "type": "bytes32"
        }
      ],
      "name": "outcomeBets",
      "outputs": [
        {
          "internalType": "uint256",
          "name": "",
          "type": "uint256"
        }
      ],
      "stateMutability": "view",
      "type": "function",
      "constant": true
    },
    {
      "inputs": [
        {
          "internalType": "uint256",
          "name": "",
          "type": "uint256"
        }
      ],
      "name": "outcomes",
      "outputs": [
        {
          "internalType": "bytes32",
          "name": "",
          "type": "bytes32"
        }
      ],
      "stateMutability": "view",
      "type": "function",
      "constant": true
    },
    {
      "inputs": [],
      "name": "owner",
      "outputs": [
        {
          "internalType": "address",
          "name": "",
          "type": "address"
        }
      ],
      "stateMutability": "view",
      "type": "function",
      "constant": true
    },
    {
      "inputs": [
        {
          "internalType": "bytes32",
          "name": "",
          "type": "bytes32"
        }
      ],
      "name": "validOutcomes",
      "outputs": [
        {
          "internalType": "bool",
          "name": "",
          "type": "bool"
        }
      ],
      "stateMutability": "view",
      "type": "function",
      "constant": true
    },
    {
      "inputs": [
        {
          "internalType": "uint256",
          "name": "",
          "type": "uint256"
        }
      ],
      "name": "winners",
      "outputs": [
        {
          "internalType": "address",
          "name": "",
          "type": "address"
        }
      ],
      "stateMutability": "view",
      "type": "function",
      "constant": true
    },
    {
      "inputs": [
        {
          "internalType": "address",
          "name": "",
          "type": "address"
        }
      ],
      "name": "wins",
      "outputs": [
        {
          "internalType": "uint256",
          "name": "",
          "type": "uint256"
        }
      ],
      "stateMutability": "view",
      "type": "function",
      "constant": true
    },
    {
      "inputs": [
        {
          "internalType": "bytes32[]",
          "name": "_outcomes",
          "type": "bytes32[]"
        }
      ],
      "name": "setOutcomes",
      "outputs": [],
      "stateMutability": "nonpayable",
      "type": "function"
    },
    {
      "inputs": [
        {
          "internalType": "address",
          "name": "newOracle",
          "type": "address"
        }
      ],
      "name": "chooseOracle",
      "outputs": [],
      "stateMutability": "nonpayable",
      "type": "function"
    },
    {
      "inputs": [
        {
          "internalType": "bytes32",
          "name": "outcome",
          "type": "bytes32"
        }
      ],
      "name": "makeBet",
      "outputs": [],
      "stateMutability": "payable",
      "type": "function",
      "payable": true
    },
    {
      "inputs": [
        {
          "internalType": "bytes32",
          "name": "decidedOutcome",
          "type": "bytes32"
        }
      ],
      "name": "makeDecision",
      "outputs": [],
      "stateMutability": "nonpayable",
      "type": "function"
    },
    {
      "inputs": [
        {
          "internalType": "uint256",
          "name": "amount",
          "type": "uint256"
        }
      ],
      "name": "withdraw",
      "outputs": [],
      "stateMutability": "nonpayable",
      "type": "function"
    },
    {
      "inputs": [],
      "name": "contractReset",
      "outputs": [],
      "stateMutability": "nonpayable",
      "type": "function"
    },
    {
      "inputs": [
        {
          "internalType": "bytes32",
          "name": "outcome",
          "type": "bytes32"
        }
      ],
      "name": "checkOutcome",
      "outputs": [
        {
          "internalType": "uint256",
          "name": "",
          "type": "uint256"
        }
      ],
      "stateMutability": "view",
      "type": "function",
      "constant": true
    },
    {
      "inputs": [
        {
          "internalType": "string",
          "name": "outcomeString",
          "type": "string"
        }
      ],
      "name": "checkOutcomeString",
      "outputs": [
        {
          "internalType": "uint256",
          "name": "",
          "type": "uint256"
        }
      ],
      "stateMutability": "view",
      "type": "function",
      "constant": true
    },
    {
      "inputs": [],
      "name": "checkWinnings",
      "outputs": [
        {
          "internalType": "uint256",
          "name": "",
          "type": "uint256"
        }
      ],
      "stateMutability": "view",
      "type": "function",
      "constant": true
    },
    {
      "inputs": [
        {
          "internalType": "address",
          "name": "_oracle",
          "type": "address"
        }
      ],
      "name": "isOracle",
      "outputs": [
        {
          "internalType": "bool",
          "name": "",
          "type": "bool"
        }
      ],
      "stateMutability": "view",
      "type": "function",
      "constant": true
    },
    {
      "inputs": [],
      "name": "getGamblers",
      "outputs": [
        {
          "internalType": "address[]",
          "name": "",
          "type": "address[]"
        }
      ],
      "stateMutability": "view",
      "type": "function",
      "constant": true
    },
    {
      "inputs": [],
      "name": "getWinners",
      "outputs": [
        {
          "internalType": "address[]",
          "name": "",
          "type": "address[]"
        }
      ],
      "stateMutability": "view",
      "type": "function",
      "constant": true
    },
    {
      "inputs": [],
      "name": "getOutcomes",
      "outputs": [
        {
          "internalType": "bytes32[]",
          "name": "",
          "type": "bytes32[]"
        }
      ],
      "stateMutability": "view",
      "type": "function",
      "constant": true
    }
  ],
  "bytecode": "0x60806040523480156200001157600080fd5b50604051620037a9380380620037a98339818101604052810190620000379190620002a1565b60018151116200007e576040517f08c379a000000000000000000000000000000000000000000000000000000000815260040162000075906200034e565b60405180910390fd5b80600890805190602001906200009692919062000177565b5060005b6008805490508110156200012f5760016009600060088481548110620000e9577f4e487b7100000000000000000000000000000000000000000000000000000000600052603260045260246000fd5b9060005260206000200154815260200190815260200160002060006101000a81548160ff02191690831515021790555080806200012690620003f8565b9150506200009a565b50336000806101000a81548173ffffffffffffffffffffffffffffffffffffffff021916908373ffffffffffffffffffffffffffffffffffffffff16021790555050620004be565b828054828255906000526020600020908101928215620001b6579160200282015b82811115620001b557825182559160200191906001019062000198565b5b509050620001c59190620001c9565b5090565b5b80821115620001e4576000816000905550600101620001ca565b5090565b6000620001ff620001f984620003a4565b62000370565b905080838252602082019050828560208602820111156200021f57600080fd5b60005b858110156200025357816200023888826200028a565b84526020840193506020830192505060018101905062000222565b5050509392505050565b600082601f8301126200026f57600080fd5b815162000281848260208601620001e8565b91505092915050565b6000815190506200029b81620004a4565b92915050565b600060208284031215620002b457600080fd5b600082015167ffffffffffffffff811115620002cf57600080fd5b620002dd848285016200025d565b91505092915050565b6000620002f5602183620003d3565b91507f6d757374207265676973746572206174206c656173742032206f7574636f6d6560008301527f73000000000000000000000000000000000000000000000000000000000000006020830152604082019050919050565b600060208201905081810360008301526200036981620002e6565b9050919050565b6000604051905081810181811067ffffffffffffffff821117156200039a576200039962000475565b5b8060405250919050565b600067ffffffffffffffff821115620003c257620003c162000475565b5b602082029050602081019050919050565b600082825260208201905092915050565b6000819050919050565b6000819050919050565b60006200040582620003ee565b91507fffffffffffffffffffffffffffffffffffffffffffffffffffffffffffffffff8214156200043b576200043a62000446565b5b600182019050919050565b7f4e487b7100000000000000000000000000000000000000000000000000000000600052601160045260246000fd5b7f4e487b7100000000000000000000000000000000000000000000000000000000600052604160045260246000fd5b620004af81620003e4565b8114620004bb57600080fd5b50565b6132db80620004ce6000396000f3fe60806040526004361061014b5760003560e01c806389a78f1a116100b6578063a7fe401d1161006f578063a7fe401d146104c0578063a97e5c93146104fd578063b8ecdb241461053a578063d0aa7e2514610563578063df15c37e1461058c578063eed2a147146105b75761014b565b806389a78f1a146103895780638da5cb5b146103c75780638efe1833146103f2578063914cf4f51461042f578063a2fb11751461046c578063a7a5ce88146104a95761014b565b80633d3db8eb116101085780633d3db8eb1461026557806352311c14146102905780635ee715d6146102cd5780636646586f146102f85780637dc0d1d0146103215780638047a97a1461034c5761014b565b806309eeebb0146101505780630ba83c6d1461017b57806327edd6cf146101a6578063284152dc146101e35780632aaf9c66146101ff5780632e1a7d4d1461023c575b600080fd5b34801561015c57600080fd5b506101656105f4565b6040516101729190612b8b565b60405180910390f35b34801561018757600080fd5b50610190610682565b60405161019d9190612bcf565b60405180910390f35b3480156101b257600080fd5b506101cd60048036038101906101c8919061247a565b610695565b6040516101da9190612e0e565b60405180910390f35b6101fd60048036038101906101f8919061247a565b6106ad565b005b34801561020b57600080fd5b50610226600480360381019061022191906124e4565b610b38565b6040516102339190612b70565b60405180910390f35b34801561024857600080fd5b50610263600480360381019061025e91906124e4565b610b77565b005b34801561027157600080fd5b5061027a610d69565b6040516102879190612bad565b60405180910390f35b34801561029c57600080fd5b506102b760048036038101906102b2919061247a565b610dc1565b6040516102c49190612e0e565b60405180910390f35b3480156102d957600080fd5b506102e2610e3e565b6040516102ef9190612e0e565b60405180910390f35b34801561030457600080fd5b5061031f600480360381019061031a9190612439565b610e85565b005b34801561032d57600080fd5b5061033661100b565b6040516103439190612b70565b60405180910390f35b34801561035857600080fd5b50610373600480360381019061036e9190612410565b611031565b6040516103809190612e0e565b60405180910390f35b34801561039557600080fd5b506103b060048036038101906103ab9190612410565b611049565b6040516103be929190612c05565b60405180910390f35b3480156103d357600080fd5b506103dc61106d565b6040516103e99190612b70565b60405180910390f35b3480156103fe57600080fd5b50610419600480360381019061041491906124a3565b611091565b6040516104269190612e0e565b60405180910390f35b34801561043b57600080fd5b506104566004803603810190610451919061247a565b6110ce565b6040516104639190612bcf565b60405180910390f35b34801561047857600080fd5b50610493600480360381019061048e91906124e4565b6110ee565b6040516104a09190612b70565b60405180910390f35b3480156104b557600080fd5b506104be61112d565b005b3480156104cc57600080fd5b506104e760048036038101906104e29190612410565b61164c565b6040516104f49190612bcf565b60405180910390f35b34801561050957600080fd5b50610524600480360381019061051f9190612410565b61166c565b6040516105319190612bcf565b60405180910390f35b34801561054657600080fd5b50610561600480360381019061055c919061247a565b6116c6565b005b34801561056f57600080fd5b5061058a60048036038101906105859190612410565b611ee8565b005b34801561059857600080fd5b506105a1612158565b6040516105ae9190612b8b565b60405180910390f35b3480156105c357600080fd5b506105de60048036038101906105d991906124e4565b6121e6565b6040516105eb9190612bea565b60405180910390f35b6060600280548060200260200160405190810160405280929190818152602001828054801561067857602002820191906000526020600020905b8160009054906101000a900473ffffffffffffffffffffffffffffffffffffffff1673ffffffffffffffffffffffffffffffffffffffff168152602001906001019080831161062e575b5050505050905090565b600560009054906101000a900460ff1681565b600a6020528060005260406000206000915090505481565b806009600082815260200190815260200160002060009054906101000a900460ff1661070e576040517f08c379a000000000000000000000000000000000000000000000000000000000815260040161070590612cee565b60405180910390fd5b600073ffffffffffffffffffffffffffffffffffffffff16600160009054906101000a900473ffffffffffffffffffffffffffffffffffffffff1673ffffffffffffffffffffffffffffffffffffffff1614156107a0576040517f08c379a000000000000000000000000000000000000000000000000000000000815260040161079790612d0e565b60405180910390fd5b60008054906101000a900473ffffffffffffffffffffffffffffffffffffffff1673ffffffffffffffffffffffffffffffffffffffff163373ffffffffffffffffffffffffffffffffffffffff16141561082f576040517f08c379a000000000000000000000000000000000000000000000000000000000815260040161082690612d4e565b60405180910390fd5b600160009054906101000a900473ffffffffffffffffffffffffffffffffffffffff1673ffffffffffffffffffffffffffffffffffffffff163373ffffffffffffffffffffffffffffffffffffffff1614156108c0576040517f08c379a00000000000000000000000000000000000000000000000000000000081526004016108b790612d8e565b60405180910390fd5b6000600460003373ffffffffffffffffffffffffffffffffffffffff1673ffffffffffffffffffffffffffffffffffffffff1681526020019081526020016000206001015414610945576040517f08c379a000000000000000000000000000000000000000000000000000000000815260040161093c90612c8e565b60405180910390fd5b600560009054906101000a900460ff1615610995576040517f08c379a000000000000000000000000000000000000000000000000000000000815260040161098c90612dae565b60405180910390fd5b604051806040016040528083815260200134815250600460003373ffffffffffffffffffffffffffffffffffffffff1673ffffffffffffffffffffffffffffffffffffffff16815260200190815260200160002060008201518160000155602082015181600101559050506001600360003373ffffffffffffffffffffffffffffffffffffffff1673ffffffffffffffffffffffffffffffffffffffff16815260200190815260200160002060006101000a81548160ff0219169083151502179055506002339080600181540180825580915050600190039060005260206000200160009091909190916101000a81548173ffffffffffffffffffffffffffffffffffffffff021916908373ffffffffffffffffffffffffffffffffffffffff16021790555034600a60008481526020019081526020016000206000828254610ade9190612f87565b92505081905550813373ffffffffffffffffffffffffffffffffffffffff167ff8e19b8ac4065a7305ef78373f54d2b12c631e1c04c0918be0342ac63f61c03334604051610b2c9190612e0e565b60405180910390a35050565b60028181548110610b4857600080fd5b906000526020600020016000915054906101000a900473ffffffffffffffffffffffffffffffffffffffff1681565b6000600760003373ffffffffffffffffffffffffffffffffffffffff1673ffffffffffffffffffffffffffffffffffffffff1681526020019081526020016000205411610bf9576040517f08c379a0000000000000000000000000000000000000000000000000000000008152600401610bf090612d2e565b60405180910390fd5b600760003373ffffffffffffffffffffffffffffffffffffffff1673ffffffffffffffffffffffffffffffffffffffff16815260200190815260200160002054811115610c7b576040517f08c379a0000000000000000000000000000000000000000000000000000000008152600401610c7290612c6e565b60405180910390fd5b80600760003373ffffffffffffffffffffffffffffffffffffffff1673ffffffffffffffffffffffffffffffffffffffff1681526020019081526020016000206000828254610cca9190613068565b925050819055503373ffffffffffffffffffffffffffffffffffffffff166108fc829081150290604051600060405180830381858888f19350505050158015610d17573d6000803e3d6000fd5b503373ffffffffffffffffffffffffffffffffffffffff167f7084f5476618d8e60b11ef0d7d3f06914655adb8793e28ff7f018d4c76d505d582604051610d5e9190612e0e565b60405180910390a250565b60606008805480602002602001604051908101604052809291908181526020018280548015610db757602002820191906000526020600020905b815481526020019060010190808311610da3575b5050505050905090565b60006009600083815260200190815260200160002060009054906101000a900460ff16610e23576040517f08c379a0000000000000000000000000000000000000000000000000000000008152600401610e1a90612cee565b60405180910390fd5b600a6000838152602001908152602001600020549050919050565b6000600760003373ffffffffffffffffffffffffffffffffffffffff1673ffffffffffffffffffffffffffffffffffffffff16815260200190815260200160002054905090565b6001815111610ec9576040517f08c379a0000000000000000000000000000000000000000000000000000000008152600401610ec090612cce565b60405180910390fd5b60005b600880549050811015610f5c5760006009600060088481548110610f19577f4e487b7100000000000000000000000000000000000000000000000000000000600052603260045260246000fd5b9060005260206000200154815260200190815260200160002060006101000a81548160ff0219169083151502179055508080610f549061316a565b915050610ecc565b508060089080519060200190610f7392919061220a565b5060005b6008805490508110156110075760016009600060088481548110610fc4577f4e487b7100000000000000000000000000000000000000000000000000000000600052603260045260246000fd5b9060005260206000200154815260200190815260200160002060006101000a81548160ff0219169083151502179055508080610fff9061316a565b915050610f77565b5050565b600160009054906101000a900473ffffffffffffffffffffffffffffffffffffffff1681565b60076020528060005260406000206000915090505481565b60046020528060005260406000206000915090508060000154908060010154905082565b60008054906101000a900473ffffffffffffffffffffffffffffffffffffffff1681565b600080826040516020016110a59190612b59565b6040516020818303038152906040528051906020012090506110c681610dc1565b915050919050565b60096020528060005260406000206000915054906101000a900460ff1681565b600681815481106110fe57600080fd5b906000526020600020016000915054906101000a900473ffffffffffffffffffffffffffffffffffffffff1681565b60008054906101000a900473ffffffffffffffffffffffffffffffffffffffff1673ffffffffffffffffffffffffffffffffffffffff163373ffffffffffffffffffffffffffffffffffffffff16146111bb576040517f08c379a00000000000000000000000000000000000000000000000000000000081526004016111b290612d6e565b60405180910390fd5b60011515600560009054906101000a900460ff16151514611211576040517f08c379a000000000000000000000000000000000000000000000000000000000815260040161120890612dce565b60405180910390fd5b6000600560006101000a81548160ff02191690831515021790555060005b6006805490508110156112f8576000600760006006848154811061127c577f4e487b7100000000000000000000000000000000000000000000000000000000600052603260045260246000fd5b9060005260206000200160009054906101000a900473ffffffffffffffffffffffffffffffffffffffff1673ffffffffffffffffffffffffffffffffffffffff1673ffffffffffffffffffffffffffffffffffffffff1681526020019081526020016000208190555080806112f09061316a565b91505061122f565b50600660006113079190612257565b60005b6002805490508110156114b95760006003600060028481548110611357577f4e487b7100000000000000000000000000000000000000000000000000000000600052603260045260246000fd5b9060005260206000200160009054906101000a900473ffffffffffffffffffffffffffffffffffffffff1673ffffffffffffffffffffffffffffffffffffffff1673ffffffffffffffffffffffffffffffffffffffff16815260200190815260200160002060006101000a81548160ff02191690831515021790555060405180604001604052806000801b81526020016000815250600460006002848154811061142a577f4e487b7100000000000000000000000000000000000000000000000000000000600052603260045260246000fd5b9060005260206000200160009054906101000a900473ffffffffffffffffffffffffffffffffffffffff1673ffffffffffffffffffffffffffffffffffffffff1673ffffffffffffffffffffffffffffffffffffffff168152602001908152602001600020600082015181600001556020820151816001015590505080806114b19061316a565b91505061130a565b50600260006114c89190612257565b60005b6008805490508110156115b8576000600a600060088481548110611518577f4e487b7100000000000000000000000000000000000000000000000000000000600052603260045260246000fd5b906000526020600020015481526020019081526020016000208190555060006009600060088481548110611575577f4e487b7100000000000000000000000000000000000000000000000000000000600052603260045260246000fd5b9060005260206000200154815260200190815260200160002060006101000a81548160ff02191690831515021790555080806115b09061316a565b9150506114cb565b50600860006115c79190612278565b60008060006101000a81548173ffffffffffffffffffffffffffffffffffffffff021916908373ffffffffffffffffffffffffffffffffffffffff1602179055506000600160006101000a81548173ffffffffffffffffffffffffffffffffffffffff021916908373ffffffffffffffffffffffffffffffffffffffff160217905550565b60036020528060005260406000206000915054906101000a900460ff1681565b60008173ffffffffffffffffffffffffffffffffffffffff16600160009054906101000a900473ffffffffffffffffffffffffffffffffffffffff1673ffffffffffffffffffffffffffffffffffffffff16149050919050565b6116cf3361166c565b61170e576040517f08c379a000000000000000000000000000000000000000000000000000000000815260040161170590612c2e565b60405180910390fd5b6009600082815260200190815260200160002060009054906101000a900460ff1661176e576040517f08c379a000000000000000000000000000000000000000000000000000000000815260040161176590612cee565b60405180910390fd5b600560009054906101000a900460ff16156117be576040517f08c379a00000000000000000000000000000000000000000000000000000000081526004016117b590612c4e565b60405180910390fd5b60008060005b600280549050811015611ac757600460006002838154811061180f577f4e487b7100000000000000000000000000000000000000000000000000000000600052603260045260246000fd5b9060005260206000200160009054906101000a900473ffffffffffffffffffffffffffffffffffffffff1673ffffffffffffffffffffffffffffffffffffffff1673ffffffffffffffffffffffffffffffffffffffff16815260200190815260200160002060010154836118839190612f87565b92508360046000600284815481106118c4577f4e487b7100000000000000000000000000000000000000000000000000000000600052603260045260246000fd5b9060005260206000200160009054906101000a900473ffffffffffffffffffffffffffffffffffffffff1673ffffffffffffffffffffffffffffffffffffffff1673ffffffffffffffffffffffffffffffffffffffff1681526020019081526020016000206000015414156119ff5760066002828154811061196f577f4e487b7100000000000000000000000000000000000000000000000000000000600052603260045260246000fd5b9060005260206000200160009054906101000a900473ffffffffffffffffffffffffffffffffffffffff169080600181540180825580915050600190039060005260206000200160009091909190916101000a81548173ffffffffffffffffffffffffffffffffffffffff021916908373ffffffffffffffffffffffffffffffffffffffff160217905550611ab4565b6004600060028381548110611a3d577f4e487b7100000000000000000000000000000000000000000000000000000000600052603260045260246000fd5b9060005260206000200160009054906101000a900473ffffffffffffffffffffffffffffffffffffffff1673ffffffffffffffffffffffffffffffffffffffff1673ffffffffffffffffffffffffffffffffffffffff1681526020019081526020016000206001015482611ab19190612f87565b91505b8080611abf9061316a565b9150506117c4565b506002805490506006805490501415611c635760005b600680549050811015611c5d576004600060068381548110611b28577f4e487b7100000000000000000000000000000000000000000000000000000000600052603260045260246000fd5b9060005260206000200160009054906101000a900473ffffffffffffffffffffffffffffffffffffffff1673ffffffffffffffffffffffffffffffffffffffff1673ffffffffffffffffffffffffffffffffffffffff168152602001908152602001600020600101546007600060068481548110611bcf577f4e487b7100000000000000000000000000000000000000000000000000000000600052603260045260246000fd5b9060005260206000200160009054906101000a900473ffffffffffffffffffffffffffffffffffffffff1673ffffffffffffffffffffffffffffffffffffffff1673ffffffffffffffffffffffffffffffffffffffff1681526020019081526020016000206000828254611c439190612f87565b925050819055508080611c559061316a565b915050611add565b50611e7a565b60006006805490501415611cee578160076000600160009054906101000a900473ffffffffffffffffffffffffffffffffffffffff1673ffffffffffffffffffffffffffffffffffffffff1673ffffffffffffffffffffffffffffffffffffffff1681526020019081526020016000206000828254611ce29190612f87565b92505081905550611e79565b60005b600680549050811015611e7757600060068281548110611d3a577f4e487b7100000000000000000000000000000000000000000000000000000000600052603260045260246000fd5b9060005260206000200160009054906101000a900473ffffffffffffffffffffffffffffffffffffffff169050600a60008681526020019081526020016000205483600460008473ffffffffffffffffffffffffffffffffffffffff1673ffffffffffffffffffffffffffffffffffffffff16815260200190815260200160002060010154611dc9919061300e565b611dd39190612fdd565b600460008373ffffffffffffffffffffffffffffffffffffffff1673ffffffffffffffffffffffffffffffffffffffff16815260200190815260200160002060010154611e209190612f87565b600760008373ffffffffffffffffffffffffffffffffffffffff1673ffffffffffffffffffffffffffffffffffffffff16815260200190815260200160002081905550508080611e6f9061316a565b915050611cf1565b505b5b6001600560006101000a81548160ff0219169083151502179055506006604051611ea49190612b42565b60405180910390207f413cf1e17d70833c017de9b3c64d0104e3e37a7191d95b3d0d6276de992a0b4d83604051611edb9190612e0e565b60405180910390a2505050565b60008054906101000a900473ffffffffffffffffffffffffffffffffffffffff1673ffffffffffffffffffffffffffffffffffffffff163373ffffffffffffffffffffffffffffffffffffffff1614611f76576040517f08c379a0000000000000000000000000000000000000000000000000000000008152600401611f6d90612d6e565b60405180910390fd5b60008054906101000a900473ffffffffffffffffffffffffffffffffffffffff1673ffffffffffffffffffffffffffffffffffffffff168173ffffffffffffffffffffffffffffffffffffffff161415612005576040517f08c379a0000000000000000000000000000000000000000000000000000000008152600401611ffc90612dee565b60405180910390fd5b60001515600360008373ffffffffffffffffffffffffffffffffffffffff1673ffffffffffffffffffffffffffffffffffffffff16815260200190815260200160002060009054906101000a900460ff16151514612098576040517f08c379a000000000000000000000000000000000000000000000000000000000815260040161208f90612cae565b60405180910390fd5b80600160006101000a81548173ffffffffffffffffffffffffffffffffffffffff021916908373ffffffffffffffffffffffffffffffffffffffff1602179055508073ffffffffffffffffffffffffffffffffffffffff16600160009054906101000a900473ffffffffffffffffffffffffffffffffffffffff1673ffffffffffffffffffffffffffffffffffffffff167f05cd89403c6bdeac21c2ff33de395121a31fa1bc2bf3adf4825f1f86e79969dd60405160405180910390a350565b606060068054806020026020016040519081016040528092919081815260200182805480156121dc57602002820191906000526020600020905b8160009054906101000a900473ffffffffffffffffffffffffffffffffffffffff1673ffffffffffffffffffffffffffffffffffffffff1681526020019060010190808311612192575b5050505050905090565b600881815481106121f657600080fd5b906000526020600020016000915090505481565b828054828255906000526020600020908101928215612246579160200282015b8281111561224557825182559160200191906001019061222a565b5b5090506122539190612299565b5090565b508054600082559060005260206000209081019061227591906122b6565b50565b50805460008255906000526020600020908101906122969190612299565b50565b5b808211156122b257600081600090555060010161229a565b5090565b5b808211156122cf5760008160009055506001016122b7565b5090565b60006122e66122e184612e5a565b612e29565b9050808382526020820190508285602086028201111561230557600080fd5b60005b85811015612335578161231b88826123bc565b845260208401935060208301925050600181019050612308565b5050509392505050565b600061235261234d84612e86565b612e29565b90508281526020810184848401111561236a57600080fd5b61237584828561310e565b509392505050565b60008135905061238c81613260565b92915050565b600082601f8301126123a357600080fd5b81356123b38482602086016122d3565b91505092915050565b6000813590506123cb81613277565b92915050565b600082601f8301126123e257600080fd5b81356123f284826020860161233f565b91505092915050565b60008135905061240a8161328e565b92915050565b60006020828403121561242257600080fd5b60006124308482850161237d565b91505092915050565b60006020828403121561244b57600080fd5b600082013567ffffffffffffffff81111561246557600080fd5b61247184828501612392565b91505092915050565b60006020828403121561248c57600080fd5b600061249a848285016123bc565b91505092915050565b6000602082840312156124b557600080fd5b600082013567ffffffffffffffff8111156124cf57600080fd5b6124db848285016123d1565b91505092915050565b6000602082840312156124f657600080fd5b6000612504848285016123fb565b91505092915050565b60006125198383612555565b60208301905092915050565b60006125318383612573565b60208301905092915050565b600061254983836126b2565b60208301905092915050565b61255e816130bc565b82525050565b61256d816130bc565b82525050565b61257c816130bc565b82525050565b600061258d82612eeb565b6125978185612f3e565b93506125a283612eb6565b8060005b838110156125d35781516125ba888261250d565b97506125c583612f17565b9250506001810190506125a6565b5085935050505092915050565b60006125eb82612ef6565b6125f58185612f4f565b935061260083612ec6565b8060005b838110156126385761261582613240565b61261f8882612525565b975061262a83612f24565b925050600181019050612604565b5085935050505092915050565b600061265082612f01565b61265a8185612f5a565b935061266583612edb565b8060005b8381101561269657815161267d888261253d565b975061268883612f31565b925050600181019050612669565b5085935050505092915050565b6126ac816130ce565b82525050565b6126bb816130da565b82525050565b6126ca816130da565b82525050565b60006126db82612f0c565b6126e58185612f7c565b93506126f581856020860161311d565b80840191505092915050565b600061270e601783612f6b565b91507f73656e6465722069736e277420746865206f7261636c650000000000000000006000830152602082019050919050565b600061274e601b83612f6b565b91507f63616e206d616b65206465636973696f6e206f6e6c79206f6e636500000000006000830152602082019050919050565b600061278e601d83612f6b565b91507f696e73756666696369656e742072657175657374656420616d6f756e740000006000830152602082019050919050565b60006127ce601e83612f6b565b91507f656163682067616d626c65722063616e206f6e6c7920626574206f6e636500006000830152602082019050919050565b600061280e601e83612f6b565b91507f746865206f7261636c652063616e6e6f7420626520612067616d626c657200006000830152602082019050919050565b600061284e602183612f6b565b91507f6d757374207265676973746572206174206c656173742032206f7574636f6d6560008301527f73000000000000000000000000000000000000000000000000000000000000006020830152604082019050919050565b60006128b4601683612f6b565b91507f6f7574636f6d65206e6f742072656769737465726564000000000000000000006000830152602082019050919050565b60006128f4600f83612f6b565b91507f6e6f206f7261636c6520666f756e6400000000000000000000000000000000006000830152602082019050919050565b6000612934601983612f6b565b91507f73656e6465722073686f756c6420626520612077696e6e6572000000000000006000830152602082019050919050565b6000612974601483612f6b565b91507f746865206f776e65722063616e6e6f74206265740000000000000000000000006000830152602082019050919050565b60006129b4601683612f6b565b91507f73656e6465722069736e277420746865206f776e6572000000000000000000006000830152602082019050919050565b60006129f4602483612f6b565b91507f746865206f7261636c65206f66207468652062657474696e672063616e6e6f7460008301527f20626574000000000000000000000000000000000000000000000000000000006020830152604082019050919050565b6000612a5a602283612f6b565b91507f63616e6e6f7420626574206166746572206465636973696f6e20776173206d6160008301527f64650000000000000000000000000000000000000000000000000000000000006020830152604082019050919050565b6000612ac0601c83612f6b565b91507f63616e6e6f74207265736574206265666f7265206465636973696f6e000000006000830152602082019050919050565b6000612b00601d83612f6b565b91507f746865206f776e65722063616e6e6f7420626520616e206f7261636c650000006000830152602082019050919050565b612b3c81613104565b82525050565b6000612b4e82846125e0565b915081905092915050565b6000612b6582846126d0565b915081905092915050565b6000602082019050612b856000830184612564565b92915050565b60006020820190508181036000830152612ba58184612582565b905092915050565b60006020820190508181036000830152612bc78184612645565b905092915050565b6000602082019050612be460008301846126a3565b92915050565b6000602082019050612bff60008301846126c1565b92915050565b6000604082019050612c1a60008301856126c1565b612c276020830184612b33565b9392505050565b60006020820190508181036000830152612c4781612701565b9050919050565b60006020820190508181036000830152612c6781612741565b9050919050565b60006020820190508181036000830152612c8781612781565b9050919050565b60006020820190508181036000830152612ca7816127c1565b9050919050565b60006020820190508181036000830152612cc781612801565b9050919050565b60006020820190508181036000830152612ce781612841565b9050919050565b60006020820190508181036000830152612d07816128a7565b9050919050565b60006020820190508181036000830152612d27816128e7565b9050919050565b60006020820190508181036000830152612d4781612927565b9050919050565b60006020820190508181036000830152612d6781612967565b9050919050565b60006020820190508181036000830152612d87816129a7565b9050919050565b60006020820190508181036000830152612da7816129e7565b9050919050565b60006020820190508181036000830152612dc781612a4d565b9050919050565b60006020820190508181036000830152612de781612ab3565b9050919050565b60006020820190508181036000830152612e0781612af3565b9050919050565b6000602082019050612e236000830184612b33565b92915050565b6000604051905081810181811067ffffffffffffffff82111715612e5057612e4f613211565b5b8060405250919050565b600067ffffffffffffffff821115612e7557612e74613211565b5b602082029050602081019050919050565b600067ffffffffffffffff821115612ea157612ea0613211565b5b601f19601f8301169050602081019050919050565b6000819050602082019050919050565b60008190508160005260206000209050919050565b6000819050602082019050919050565b600081519050919050565b600081549050919050565b600081519050919050565b600081519050919050565b6000602082019050919050565b6000600182019050919050565b6000602082019050919050565b600082825260208201905092915050565b600081905092915050565b600082825260208201905092915050565b600082825260208201905092915050565b600081905092915050565b6000612f9282613104565b9150612f9d83613104565b9250827fffffffffffffffffffffffffffffffffffffffffffffffffffffffffffffffff03821115612fd257612fd16131b3565b5b828201905092915050565b6000612fe882613104565b9150612ff383613104565b925082613003576130026131e2565b5b828204905092915050565b600061301982613104565b915061302483613104565b9250817fffffffffffffffffffffffffffffffffffffffffffffffffffffffffffffffff048311821515161561305d5761305c6131b3565b5b828202905092915050565b600061307382613104565b915061307e83613104565b925082821015613091576130906131b3565b5b828203905092915050565b600073ffffffffffffffffffffffffffffffffffffffff82169050919050565b60006130c7826130e4565b9050919050565b60008115159050919050565b6000819050919050565b600073ffffffffffffffffffffffffffffffffffffffff82169050919050565b6000819050919050565b82818337600083830152505050565b60005b8381101561313b578082015181840152602081019050613120565b8381111561314a576000848401525b50505050565b600061316361315e83613253565b61309c565b9050919050565b600061317582613104565b91507fffffffffffffffffffffffffffffffffffffffffffffffffffffffffffffffff8214156131a8576131a76131b3565b5b600182019050919050565b7f4e487b7100000000000000000000000000000000000000000000000000000000600052601160045260246000fd5b7f4e487b7100000000000000000000000000000000000000000000000000000000600052601260045260246000fd5b7f4e487b7100000000000000000000000000000000000000000000000000000000600052604160045260246000fd5b600061324c8254613150565b9050919050565b60008160001c9050919050565b613269816130bc565b811461327457600080fd5b50565b613280816130da565b811461328b57600080fd5b50565b61329781613104565b81146132a257600080fd5b5056fea264697066735822122057fe376a322afe63c9b28b2c3fb474ea3db0c8daf0c1f23ec2e4ab49990ae22e64736f6c63430008000033",
  "immutableReferences": {},
  "source": "// SPDX-License-Identifier: GPL-3.0-only\npragma solidity >=0.6.0 <=0.8.9;\n\ncontract Betting {\n    /* Define the Bet struct */\n    struct Bet {\n        bytes32 outcome; // the guessed outcome\n        uint256 amount; // the bet amount\n    }\n\n    address public owner; // the contract owner\n    address public oracle; // the oracle that will decide the outcome of the betting\n    address[] public gamblers; // list of the gamblers addresses\n    mapping(address => bool) public isGambler;\n\n    /* Maps the gambler's addresses to their bets */\n    mapping(address => Bet) public bets;\n\n    bool public decisionMade;\n\n    /* List of all winners (maps are not iterable in solidity)*/\n    address[] public winners;\n    /* Maps the winners to their prize amount */\n    mapping(address => uint256) public wins;\n\n    /* Keep track of all possible outcomes */\n    bytes32[] public outcomes;\n    /* Map the valid outcomes for his betting */\n    mapping(bytes32 => bool) public validOutcomes;\n    /* Keep track of the total bet amount in all outcomes */\n    mapping(bytes32 => uint256) public outcomeBets;\n\n    /* Add any events you think are necessary */\n    event BetMade(\n        address indexed gambler,\n        bytes32 indexed outcome,\n        uint256 amount\n    );\n    event Winners(address[] indexed wins, uint256 totalPrize);\n    event OracleChanged(\n        address indexed previousOracle,\n        address indexed newOracle\n    );\n    event Withdrawn(address indexed gambler, uint256 amount);\n\n    /* Uh Oh, what are these? */\n    modifier onlyOwner() {\n        require(msg.sender == owner, \"sender isn't the owner\");\n        _;\n    }\n\n    modifier onlyOracle() {\n        require(isOracle(msg.sender), \"sender isn't the oracle\");\n        _;\n    }\n\n    modifier requireOracle() {\n        require(oracle != address(0), \"no oracle found\");\n        _;\n    }\n\n    modifier outcomeExists(bytes32 outcome) {\n        require(validOutcomes[outcome], \"outcome not registered\");\n        _;\n    }\n\n    modifier onlyWinners() {\n        require(wins[msg.sender] > 0, \"sender should be a winner\");\n        _;\n    }\n\n    /* Constructor function, where owner and outcomes are set */\n    constructor(bytes32[] memory initOutcomes) {\n        /* TODO (students) */\n        // should register at least 2 possible outcomes,\n        require(initOutcomes.length > 1, \"must register at least 2 outcomes\");\n        outcomes = initOutcomes;\n        for (uint256 i = 0; i < outcomes.length; i++) {\n            validOutcomes[outcomes[i]] = true;\n        }\n        // and define the contract owner.\n        owner = msg.sender;\n    }\n\n    function setOutcomes(bytes32[] memory _outcomes) public {\n        /* TODO (students) */\n        // I guess this function can be used to initialize the outcomes\n        require(_outcomes.length > 1, \"must register at least 2 outcomes\");\n        for (uint256 i = 0; i < outcomes.length; i++) {\n            validOutcomes[outcomes[i]] = false;\n        }\n        outcomes = _outcomes;\n        for (uint256 i = 0; i < outcomes.length; i++) {\n            validOutcomes[outcomes[i]] = true;\n        }\n    }\n\n    /**\n     * @notice This function allows owner to chooses their trusted Oracle.\n     * @param newOracle The address of the new oracle.\n     */\n    function chooseOracle(address newOracle) public onlyOwner {\n        /* TODO (students) */\n        // Must be called only by the contract owner\n        // The oracle cannot be neither a gambler or the owner\n        require(newOracle != owner, \"the owner cannot be an oracle\");\n        require(\n            isGambler[newOracle] == false,\n            \"the oracle cannot be a gambler\"\n        );\n        // Should emit OracleChanged event\n        oracle = newOracle;\n        emit OracleChanged(oracle, newOracle);\n    }\n\n    /**\n     * @notice Make a bet.\n     * @param outcome The hash of the outcome to bet on.\n     */\n    function makeBet(bytes32 outcome)\n        public\n        payable\n        outcomeExists(outcome)\n        requireOracle\n    {\n        /* TODO (students) */\n        // Owner and oracle cannot make a bet\n        require(msg.sender != owner, \"the owner cannot bet\");\n        require(msg.sender != oracle, \"the oracle of the betting cannot bet\");\n        // A gambler cannot bet twice\n        require(bets[msg.sender].amount == 0, \"each gambler can only bet once\");\n        // A gambler can only bet on a registered outcome //Modifier\n        // An oracle should be assigned before starting bets //Modifier\n        // Must be impossible to bet after decision was made\n        require(!decisionMade, \"cannot bet after decision was made\");\n        // Betters are registered by placing a bet\n        bets[msg.sender] = Bet(outcome, msg.value);\n        isGambler[msg.sender] = true;\n        gamblers.push(msg.sender);\n        outcomeBets[outcome] += msg.value;\n        // Should emit BetMade event\n        emit BetMade(msg.sender, outcome, msg.value);\n    }\n\n    /**\n     * @notice Decide on an outcome.\n     * @param decidedOutcome The chosen outcome.\n     */\n    function makeDecision(bytes32 decidedOutcome) public onlyOracle {\n        /* TODO (students) */\n        // Must be called only by the oracle //Modifier\n        // Winning outcome must exist\n        require(validOutcomes[decidedOutcome], \"outcome not registered\");\n        // Gamblers and bets must exists before make a decision\n        // for (uint256 g = 0; g < gamblers.length; g++) {\n        //     require(isGambler[gamblers[g]], \"mess\");\n        // }\n        // The oracle must chooses which outcome wins calling and set the winners.\n        require(!decisionMade, \"can make decision only once\");\n        uint256 totBetAmount = 0;\n        uint256 totLosersAmount = 0;\n        for (uint256 g = 0; g < gamblers.length; g++) {\n            totBetAmount += bets[gamblers[g]].amount;\n            if (bets[gamblers[g]].outcome == decidedOutcome) {\n                winners.push(gamblers[g]);\n            } else {\n                totLosersAmount += bets[gamblers[g]].amount;\n            }\n        }\n        if (winners.length == gamblers.length) {\n            for (uint256 node = 0; node < winners.length; node++) {\n                wins[winners[node]] += bets[winners[node]].amount;\n            }\n        } else if (winners.length == 0) {\n            wins[oracle] += totBetAmount;\n        } else {\n            for (uint256 w = 0; w < winners.length; w++) {\n                address w1 = winners[w];\n                wins[w1] =\n                    bets[w1].amount +\n                    (bets[w1].amount * totLosersAmount) /\n                    outcomeBets[decidedOutcome];\n            }\n        }\n        // Should be called only once before reset\n        decisionMade = true;\n        // The winners receive a proportional share of the total funds at stake if they all bet on the correct outcome\n        // If all gamblers bet on the correct outcome, then they must get reimbursed their funds.\n        // If no gamblers bet on the correct outcome, then the oracle wins the sum of the funds.\n        // Should emit Winners event\n        emit Winners(winners, totBetAmount);\n    }\n\n    /**\n     * @notice This function allows the winners to withdraw their\n     * winnings safely (if they win something).\n     * @param amount The amount to be withdrawn\n     */\n    function withdraw(uint256 amount) public onlyWinners {\n        /* TODO (students) */\n        // Should only be called by winners //Modifier\n        // Winners can withdraw multiple times until the total amount of their prize\n        require(amount <= wins[msg.sender], \"insufficient requested amount\");\n        // Should emit Withdrawn event\n        wins[msg.sender] -= amount;\n        payable(msg.sender).transfer(amount);\n        emit Withdrawn(msg.sender, amount);\n    }\n\n    /**\n     * @notice Reset the contract state\n     */\n    function contractReset() public onlyOwner {\n        /* TODO (students) */\n        // Must only be called by the contract owner. //Modifier\n        // Should not allow reset the contract state before a decision is made\n        require(decisionMade == true, \"cannot reset before decision\");\n        // Must reset the contract variables to the initial state to allow new bettings and outcomes.\n        decisionMade = false;\n        for (uint256 w = 0; w < winners.length; w++) {\n            wins[winners[w]] = 0;\n        }\n        delete winners;\n\n        for (uint256 g = 0; g < gamblers.length; g++) {\n            isGambler[gamblers[g]] = false;\n            bets[gamblers[g]] = Bet(0, 0);\n        }\n        delete gamblers;\n\n        for (uint256 o = 0; o < outcomes.length; o++) {\n            outcomeBets[outcomes[o]] = 0;\n            validOutcomes[outcomes[o]] = false;\n        }\n        delete outcomes;\n        owner = address(0x0);\n        oracle = address(0x0);\n    }\n\n    /**\n     * @dev This function allows anyone to check the amount\n     * already betted per outcome.\n     * @param outcome The hash of the outcome to be checked.\n     * @return The amount betted for the given outcome.\n     */\n    function checkOutcome(bytes32 outcome) public view returns (uint256) {\n        /* TODO (students) */\n        // Must revert if outcome does not exist\n        require(validOutcomes[outcome], \"outcome not registered\");\n        // Returns the current stake for the given outcome\n        return outcomeBets[outcome];\n    }\n\n    /**\n     * @notice This function is similar to `checkOutcome` but\n     * it receives the outcome as string.\n     * @param outcomeString The string representation of the outcome\n     * to be checked.\n     * @dev It uses the `keccak256` hash function to get the hash of the `outcomeString`\n     * @return The amount betted for the given outcome.\n     */\n    function checkOutcomeString(string memory outcomeString)\n        public\n        view\n        returns (uint256)\n    {\n        /* TODO (students) */\n        bytes32 outbit = bytes32(keccak256(abi.encodePacked(outcomeString)));\n        // hash outcomestring using keccak256. Then checkOutcome\n        return checkOutcome(outbit);\n    }\n\n    /**\n     * @notice This function allows anyone to check their winnings.\n     * @return The winning amount of the msg.sender if it exists.\n     */\n    function checkWinnings() public view returns (uint256) {\n        return wins[msg.sender];\n    }\n\n    function isOracle(address _oracle) public view returns (bool) {\n        return oracle == _oracle;\n    }\n\n    function getGamblers() public view returns (address[] memory) {\n        return gamblers;\n    }\n\n    function getWinners() public view returns (address[] memory) {\n        return winners;\n    }\n\n    function getOutcomes() public view returns (bytes32[] memory) {\n        return outcomes;\n    }\n}\n",
  "sourcePath": "/home/theseus/reactts/contracts/Betting.sol",
  "compiler": {
    "name": "solc",
    "version": "0.8.0+commit.c7dfd78e.Emscripten.clang"
  },
  "schemaVersion": "3.4.3",
  "updatedAt": "2021-11-06T13:08:53.181Z",
  "networkType": "ethereum",
  "devdoc": {
    "kind": "dev",
    "methods": {
      "checkOutcome(bytes32)": {
        "details": "This function allows anyone to check the amount already betted per outcome.",
        "params": {
          "outcome": "The hash of the outcome to be checked."
        },
        "returns": {
          "_0": "The amount betted for the given outcome."
        }
      },
      "checkOutcomeString(string)": {
        "details": "It uses the `keccak256` hash function to get the hash of the `outcomeString`",
        "params": {
          "outcomeString": "The string representation of the outcome to be checked."
        },
        "returns": {
          "_0": "The amount betted for the given outcome."
        }
      },
      "checkWinnings()": {
        "returns": {
          "_0": "The winning amount of the msg.sender if it exists."
        }
      },
      "chooseOracle(address)": {
        "params": {
          "newOracle": "The address of the new oracle."
        }
      },
      "makeBet(bytes32)": {
        "params": {
          "outcome": "The hash of the outcome to bet on."
        }
      },
      "makeDecision(bytes32)": {
        "params": {
          "decidedOutcome": "The chosen outcome."
        }
      },
      "withdraw(uint256)": {
        "params": {
          "amount": "The amount to be withdrawn"
        }
      }
    },
    "version": 1
  },
  "userdoc": {
    "kind": "user",
    "methods": {
      "checkOutcomeString(string)": {
        "notice": "This function is similar to `checkOutcome` but it receives the outcome as string."
      },
      "checkWinnings()": {
        "notice": "This function allows anyone to check their winnings."
      },
      "chooseOracle(address)": {
        "notice": "This function allows owner to chooses their trusted Oracle."
      },
      "contractReset()": {
        "notice": "Reset the contract state"
      },
      "makeBet(bytes32)": {
        "notice": "Make a bet."
      },
      "makeDecision(bytes32)": {
        "notice": "Decide on an outcome."
      },
      "withdraw(uint256)": {
        "notice": "This function allows the winners to withdraw their winnings safely (if they win something)."
      }
    },
    "version": 1
  }
}